{
	"demo/03_bytes.sol": {
		"TestBytes": {
			"abi": [
				{
					"inputs": [],
					"name": "b1",
					"outputs": [
						{
							"internalType": "bytes1",
							"name": "",
							"type": "bytes1"
						}
					],
					"stateMutability": "view",
					"type": "function"
				},
				{
					"inputs": [],
					"name": "b2",
					"outputs": [
						{
							"internalType": "bytes2",
							"name": "",
							"type": "bytes2"
						}
					],
					"stateMutability": "view",
					"type": "function"
				},
				{
					"inputs": [],
					"name": "b32",
					"outputs": [
						{
							"internalType": "bytes32",
							"name": "",
							"type": "bytes32"
						}
					],
					"stateMutability": "view",
					"type": "function"
				},
				{
					"inputs": [],
					"name": "b6",
					"outputs": [
						{
							"internalType": "bytes6",
							"name": "",
							"type": "bytes6"
						}
					],
					"stateMutability": "view",
					"type": "function"
				},
				{
					"inputs": [],
					"name": "get_by_index",
					"outputs": [
						{
							"internalType": "bytes32",
							"name": "",
							"type": "bytes32"
						}
					],
					"stateMutability": "view",
					"type": "function"
				},
				{
					"inputs": [],
					"name": "get_lan",
					"outputs": [
						{
							"internalType": "uint256",
							"name": "",
							"type": "uint256"
						}
					],
					"stateMutability": "view",
					"type": "function"
				}
			],
			"devdoc": {
				"kind": "dev",
				"methods": {},
				"version": 1
			},
			"evm": {
				"assembly": "    /* \"demo/03_bytes.sol\":60:604  contract TestBytes{... */\n  mstore(0x40, 0x80)\n    /* \"demo/03_bytes.sol\":135:159  bytes2 public  b2 = \"hh\" */\n  0x6868000000000000000000000000000000000000000000000000000000000000\n  0x00\n  exp(0x0100, 0x01)\n  dup2\n  sload\n  dup2\n  0xffff\n  mul\n  not\n  and\n  swap1\n  dup4\n  0xf0\n  shr\n  mul\n  or\n  swap1\n  sstore\n  pop\n    /* \"demo/03_bytes.sol\":235:263  bytes6 public  b6 = \"123456\" */\n  0x3132333435360000000000000000000000000000000000000000000000000000\n  0x00\n  exp(0x0100, 0x03)\n  dup2\n  sload\n  dup2\n  0xffffffffffff\n  mul\n  not\n  and\n  swap1\n  dup4\n  0xd0\n  shr\n  mul\n  or\n  swap1\n  sstore\n  pop\n    /* \"demo/03_bytes.sol\":299:328  bytes32 public  b32 =\"hallen\" */\n  sstore(0x01, 0x68616c6c656e0000000000000000000000000000000000000000000000000000)\n    /* \"demo/03_bytes.sol\":60:604  contract TestBytes{... */\n  callvalue\n  dup1\n  iszero\n  tag_1\n  jumpi\n  revert(0x00, 0x00)\ntag_1:\n  pop\n  dataSize(sub_0)\n  dup1\n  dataOffset(sub_0)\n  0x00\n  codecopy\n  0x00\n  return\nstop\n\nsub_0: assembly {\n        /* \"demo/03_bytes.sol\":60:604  contract TestBytes{... */\n      mstore(0x40, 0x80)\n      callvalue\n      dup1\n      iszero\n      tag_1\n      jumpi\n      revert(0x00, 0x00)\n    tag_1:\n      pop\n      jumpi(tag_2, lt(calldatasize, 0x04))\n      shr(0xe0, calldataload(0x00))\n      dup1\n      0x0add6ef2\n      eq\n      tag_3\n      jumpi\n      dup1\n      0x713cf831\n      eq\n      tag_4\n      jumpi\n      dup1\n      0xc1001038\n      eq\n      tag_5\n      jumpi\n      dup1\n      0xee495002\n      eq\n      tag_6\n      jumpi\n      dup1\n      0xf60176b2\n      eq\n      tag_7\n      jumpi\n      dup1\n      0xf8aab238\n      eq\n      tag_8\n      jumpi\n    tag_2:\n      revert(0x00, 0x00)\n        /* \"demo/03_bytes.sol\":135:159  bytes2 public  b2 = \"hh\" */\n    tag_3:\n      tag_9\n      tag_10\n      jump\t// in\n    tag_9:\n      mload(0x40)\n      tag_11\n      swap2\n      swap1\n      tag_12\n      jump\t// in\n    tag_11:\n      mload(0x40)\n      dup1\n      swap2\n      sub\n      swap1\n      return\n        /* \"demo/03_bytes.sol\":485:601  function get_by_index()public view returns (bytes32){... */\n    tag_4:\n      tag_13\n      tag_14\n      jump\t// in\n    tag_13:\n      mload(0x40)\n      tag_15\n      swap2\n      swap1\n      tag_16\n      jump\t// in\n    tag_15:\n      mload(0x40)\n      dup1\n      swap2\n      sub\n      swap1\n      return\n        /* \"demo/03_bytes.sol\":338:476  function get_lan() public view returns (uint256){   // 这里你能用int 因为长度不能为负数... */\n    tag_5:\n      tag_17\n      tag_18\n      jump\t// in\n    tag_17:\n      mload(0x40)\n      tag_19\n      swap2\n      swap1\n      tag_20\n      jump\t// in\n    tag_19:\n      mload(0x40)\n      dup1\n      swap2\n      sub\n      swap1\n      return\n        /* \"demo/03_bytes.sol\":85:102  bytes1 public  b1 */\n    tag_6:\n      tag_21\n      tag_22\n      jump\t// in\n    tag_21:\n      mload(0x40)\n      tag_23\n      swap2\n      swap1\n      tag_24\n      jump\t// in\n    tag_23:\n      mload(0x40)\n      dup1\n      swap2\n      sub\n      swap1\n      return\n        /* \"demo/03_bytes.sol\":235:263  bytes6 public  b6 = \"123456\" */\n    tag_7:\n      tag_25\n      tag_26\n      jump\t// in\n    tag_25:\n      mload(0x40)\n      tag_27\n      swap2\n      swap1\n      tag_28\n      jump\t// in\n    tag_27:\n      mload(0x40)\n      dup1\n      swap2\n      sub\n      swap1\n      return\n        /* \"demo/03_bytes.sol\":299:328  bytes32 public  b32 =\"hallen\" */\n    tag_8:\n      tag_29\n      tag_30\n      jump\t// in\n    tag_29:\n      mload(0x40)\n      tag_31\n      swap2\n      swap1\n      tag_16\n      jump\t// in\n    tag_31:\n      mload(0x40)\n      dup1\n      swap2\n      sub\n      swap1\n      return\n        /* \"demo/03_bytes.sol\":135:159  bytes2 public  b2 = \"hh\" */\n    tag_10:\n      0x00\n      0x01\n      swap1\n      sload\n      swap1\n      0x0100\n      exp\n      swap1\n      div\n      0xf0\n      shl\n      dup2\n      jump\t// out\n        /* \"demo/03_bytes.sol\":485:601  function get_by_index()public view returns (bytes32){... */\n    tag_14:\n        /* \"demo/03_bytes.sol\":529:536  bytes32 */\n      0x00\n        /* \"demo/03_bytes.sol\":555:558  b32 */\n      sload(0x01)\n        /* \"demo/03_bytes.sol\":559:560  0 */\n      0x00\n        /* \"demo/03_bytes.sol\":555:561  b32[0] */\n      0x20\n      dup2\n      lt\n      tag_33\n      jumpi\n      tag_34\n      tag_35\n      jump\t// in\n    tag_34:\n    tag_33:\n      byte\n      0xf8\n      shl\n        /* \"demo/03_bytes.sol\":548:561  return b32[0] */\n      not(0xffffffffffffffffffffffffffffffffffffffffffffffffffffffffffffff)\n      and\n      swap1\n      pop\n        /* \"demo/03_bytes.sol\":485:601  function get_by_index()public view returns (bytes32){... */\n      swap1\n      jump\t// out\n        /* \"demo/03_bytes.sol\":338:476  function get_lan() public view returns (uint256){   // 这里你能用int 因为长度不能为负数... */\n    tag_18:\n        /* \"demo/03_bytes.sol\":378:385  uint256 */\n      0x00\n        /* \"demo/03_bytes.sol\":457:467  b32.length */\n      0x20\n        /* \"demo/03_bytes.sol\":449:467  return  b32.length */\n      0xff\n      and\n      swap1\n      pop\n        /* \"demo/03_bytes.sol\":338:476  function get_lan() public view returns (uint256){   // 这里你能用int 因为长度不能为负数... */\n      swap1\n      jump\t// out\n        /* \"demo/03_bytes.sol\":85:102  bytes1 public  b1 */\n    tag_22:\n      0x00\n      0x00\n      swap1\n      sload\n      swap1\n      0x0100\n      exp\n      swap1\n      div\n      0xf8\n      shl\n      dup2\n      jump\t// out\n        /* \"demo/03_bytes.sol\":235:263  bytes6 public  b6 = \"123456\" */\n    tag_26:\n      0x00\n      0x03\n      swap1\n      sload\n      swap1\n      0x0100\n      exp\n      swap1\n      div\n      0xd0\n      shl\n      dup2\n      jump\t// out\n        /* \"demo/03_bytes.sol\":299:328  bytes32 public  b32 =\"hallen\" */\n    tag_30:\n      sload(0x01)\n      dup2\n      jump\t// out\n        /* \"#utility.yul\":7:156   */\n    tag_37:\n        /* \"#utility.yul\":43:50   */\n      0x00\n        /* \"#utility.yul\":83:149   */\n      0xffff000000000000000000000000000000000000000000000000000000000000\n        /* \"#utility.yul\":76:81   */\n      dup3\n        /* \"#utility.yul\":72:150   */\n      and\n        /* \"#utility.yul\":61:150   */\n      swap1\n      pop\n        /* \"#utility.yul\":7:156   */\n      swap2\n      swap1\n      pop\n      jump\t// out\n        /* \"#utility.yul\":162:277   */\n    tag_38:\n        /* \"#utility.yul\":247:270   */\n      tag_50\n        /* \"#utility.yul\":264:269   */\n      dup2\n        /* \"#utility.yul\":247:270   */\n      tag_37\n      jump\t// in\n    tag_50:\n        /* \"#utility.yul\":242:245   */\n      dup3\n        /* \"#utility.yul\":235:271   */\n      mstore\n        /* \"#utility.yul\":162:277   */\n      pop\n      pop\n      jump\t// out\n        /* \"#utility.yul\":283:501   */\n    tag_12:\n        /* \"#utility.yul\":374:378   */\n      0x00\n        /* \"#utility.yul\":412:414   */\n      0x20\n        /* \"#utility.yul\":401:410   */\n      dup3\n        /* \"#utility.yul\":397:415   */\n      add\n        /* \"#utility.yul\":389:415   */\n      swap1\n      pop\n        /* \"#utility.yul\":425:494   */\n      tag_52\n        /* \"#utility.yul\":491:492   */\n      0x00\n        /* \"#utility.yul\":480:489   */\n      dup4\n        /* \"#utility.yul\":476:493   */\n      add\n        /* \"#utility.yul\":467:473   */\n      dup5\n        /* \"#utility.yul\":425:494   */\n      tag_38\n      jump\t// in\n    tag_52:\n        /* \"#utility.yul\":283:501   */\n      swap3\n      swap2\n      pop\n      pop\n      jump\t// out\n        /* \"#utility.yul\":507:584   */\n    tag_39:\n        /* \"#utility.yul\":544:551   */\n      0x00\n        /* \"#utility.yul\":573:578   */\n      dup2\n        /* \"#utility.yul\":562:578   */\n      swap1\n      pop\n        /* \"#utility.yul\":507:584   */\n      swap2\n      swap1\n      pop\n      jump\t// out\n        /* \"#utility.yul\":590:708   */\n    tag_40:\n        /* \"#utility.yul\":677:701   */\n      tag_55\n        /* \"#utility.yul\":695:700   */\n      dup2\n        /* \"#utility.yul\":677:701   */\n      tag_39\n      jump\t// in\n    tag_55:\n        /* \"#utility.yul\":672:675   */\n      dup3\n        /* \"#utility.yul\":665:702   */\n      mstore\n        /* \"#utility.yul\":590:708   */\n      pop\n      pop\n      jump\t// out\n        /* \"#utility.yul\":714:936   */\n    tag_16:\n        /* \"#utility.yul\":807:811   */\n      0x00\n        /* \"#utility.yul\":845:847   */\n      0x20\n        /* \"#utility.yul\":834:843   */\n      dup3\n        /* \"#utility.yul\":830:848   */\n      add\n        /* \"#utility.yul\":822:848   */\n      swap1\n      pop\n        /* \"#utility.yul\":858:929   */\n      tag_57\n        /* \"#utility.yul\":926:927   */\n      0x00\n        /* \"#utility.yul\":915:924   */\n      dup4\n        /* \"#utility.yul\":911:928   */\n      add\n        /* \"#utility.yul\":902:908   */\n      dup5\n        /* \"#utility.yul\":858:929   */\n      tag_40\n      jump\t// in\n    tag_57:\n        /* \"#utility.yul\":714:936   */\n      swap3\n      swap2\n      pop\n      pop\n      jump\t// out\n        /* \"#utility.yul\":942:1019   */\n    tag_41:\n        /* \"#utility.yul\":979:986   */\n      0x00\n        /* \"#utility.yul\":1008:1013   */\n      dup2\n        /* \"#utility.yul\":997:1013   */\n      swap1\n      pop\n        /* \"#utility.yul\":942:1019   */\n      swap2\n      swap1\n      pop\n      jump\t// out\n        /* \"#utility.yul\":1025:1143   */\n    tag_42:\n        /* \"#utility.yul\":1112:1136   */\n      tag_60\n        /* \"#utility.yul\":1130:1135   */\n      dup2\n        /* \"#utility.yul\":1112:1136   */\n      tag_41\n      jump\t// in\n    tag_60:\n        /* \"#utility.yul\":1107:1110   */\n      dup3\n        /* \"#utility.yul\":1100:1137   */\n      mstore\n        /* \"#utility.yul\":1025:1143   */\n      pop\n      pop\n      jump\t// out\n        /* \"#utility.yul\":1149:1371   */\n    tag_20:\n        /* \"#utility.yul\":1242:1246   */\n      0x00\n        /* \"#utility.yul\":1280:1282   */\n      0x20\n        /* \"#utility.yul\":1269:1278   */\n      dup3\n        /* \"#utility.yul\":1265:1283   */\n      add\n        /* \"#utility.yul\":1257:1283   */\n      swap1\n      pop\n        /* \"#utility.yul\":1293:1364   */\n      tag_62\n        /* \"#utility.yul\":1361:1362   */\n      0x00\n        /* \"#utility.yul\":1350:1359   */\n      dup4\n        /* \"#utility.yul\":1346:1363   */\n      add\n        /* \"#utility.yul\":1337:1343   */\n      dup5\n        /* \"#utility.yul\":1293:1364   */\n      tag_42\n      jump\t// in\n    tag_62:\n        /* \"#utility.yul\":1149:1371   */\n      swap3\n      swap2\n      pop\n      pop\n      jump\t// out\n        /* \"#utility.yul\":1377:1526   */\n    tag_43:\n        /* \"#utility.yul\":1413:1420   */\n      0x00\n        /* \"#utility.yul\":1453:1519   */\n      0xff00000000000000000000000000000000000000000000000000000000000000\n        /* \"#utility.yul\":1446:1451   */\n      dup3\n        /* \"#utility.yul\":1442:1520   */\n      and\n        /* \"#utility.yul\":1431:1520   */\n      swap1\n      pop\n        /* \"#utility.yul\":1377:1526   */\n      swap2\n      swap1\n      pop\n      jump\t// out\n        /* \"#utility.yul\":1532:1647   */\n    tag_44:\n        /* \"#utility.yul\":1617:1640   */\n      tag_65\n        /* \"#utility.yul\":1634:1639   */\n      dup2\n        /* \"#utility.yul\":1617:1640   */\n      tag_43\n      jump\t// in\n    tag_65:\n        /* \"#utility.yul\":1612:1615   */\n      dup3\n        /* \"#utility.yul\":1605:1641   */\n      mstore\n        /* \"#utility.yul\":1532:1647   */\n      pop\n      pop\n      jump\t// out\n        /* \"#utility.yul\":1653:1871   */\n    tag_24:\n        /* \"#utility.yul\":1744:1748   */\n      0x00\n        /* \"#utility.yul\":1782:1784   */\n      0x20\n        /* \"#utility.yul\":1771:1780   */\n      dup3\n        /* \"#utility.yul\":1767:1785   */\n      add\n        /* \"#utility.yul\":1759:1785   */\n      swap1\n      pop\n        /* \"#utility.yul\":1795:1864   */\n      tag_67\n        /* \"#utility.yul\":1861:1862   */\n      0x00\n        /* \"#utility.yul\":1850:1859   */\n      dup4\n        /* \"#utility.yul\":1846:1863   */\n      add\n        /* \"#utility.yul\":1837:1843   */\n      dup5\n        /* \"#utility.yul\":1795:1864   */\n      tag_44\n      jump\t// in\n    tag_67:\n        /* \"#utility.yul\":1653:1871   */\n      swap3\n      swap2\n      pop\n      pop\n      jump\t// out\n        /* \"#utility.yul\":1877:2026   */\n    tag_45:\n        /* \"#utility.yul\":1913:1920   */\n      0x00\n        /* \"#utility.yul\":1953:2019   */\n      0xffffffffffff0000000000000000000000000000000000000000000000000000\n        /* \"#utility.yul\":1946:1951   */\n      dup3\n        /* \"#utility.yul\":1942:2020   */\n      and\n        /* \"#utility.yul\":1931:2020   */\n      swap1\n      pop\n        /* \"#utility.yul\":1877:2026   */\n      swap2\n      swap1\n      pop\n      jump\t// out\n        /* \"#utility.yul\":2032:2147   */\n    tag_46:\n        /* \"#utility.yul\":2117:2140   */\n      tag_70\n        /* \"#utility.yul\":2134:2139   */\n      dup2\n        /* \"#utility.yul\":2117:2140   */\n      tag_45\n      jump\t// in\n    tag_70:\n        /* \"#utility.yul\":2112:2115   */\n      dup3\n        /* \"#utility.yul\":2105:2141   */\n      mstore\n        /* \"#utility.yul\":2032:2147   */\n      pop\n      pop\n      jump\t// out\n        /* \"#utility.yul\":2153:2371   */\n    tag_28:\n        /* \"#utility.yul\":2244:2248   */\n      0x00\n        /* \"#utility.yul\":2282:2284   */\n      0x20\n        /* \"#utility.yul\":2271:2280   */\n      dup3\n        /* \"#utility.yul\":2267:2285   */\n      add\n        /* \"#utility.yul\":2259:2285   */\n      swap1\n      pop\n        /* \"#utility.yul\":2295:2364   */\n      tag_72\n        /* \"#utility.yul\":2361:2362   */\n      0x00\n        /* \"#utility.yul\":2350:2359   */\n      dup4\n        /* \"#utility.yul\":2346:2363   */\n      add\n        /* \"#utility.yul\":2337:2343   */\n      dup5\n        /* \"#utility.yul\":2295:2364   */\n      tag_46\n      jump\t// in\n    tag_72:\n        /* \"#utility.yul\":2153:2371   */\n      swap3\n      swap2\n      pop\n      pop\n      jump\t// out\n        /* \"#utility.yul\":2377:2557   */\n    tag_35:\n        /* \"#utility.yul\":2425:2502   */\n      0x4e487b7100000000000000000000000000000000000000000000000000000000\n        /* \"#utility.yul\":2422:2423   */\n      0x00\n        /* \"#utility.yul\":2415:2503   */\n      mstore\n        /* \"#utility.yul\":2522:2526   */\n      0x32\n        /* \"#utility.yul\":2519:2520   */\n      0x04\n        /* \"#utility.yul\":2512:2527   */\n      mstore\n        /* \"#utility.yul\":2546:2550   */\n      0x24\n        /* \"#utility.yul\":2543:2544   */\n      0x00\n        /* \"#utility.yul\":2536:2551   */\n      revert\n\n    auxdata: 0xa264697066735822122037252930bbf110d0441998844bae4a651e545109bd34b7b2396fd04821f80ffd64736f6c634300081e0033\n}\n",
				"bytecode": {
					"linkReferences": {},
					"object": "60806040527f68680000000000000000000000000000000000000000000000000000000000005f60016101000a81548161ffff021916908360f01c02179055507f31323334353600000000000000000000000000000000000000000000000000005f60036101000a81548165ffffffffffff021916908360d01c02179055507f68616c6c656e000000000000000000000000000000000000000000000000000060015534801560ac575f5ffd5b5061035d806100ba5f395ff3fe608060405234801561000f575f5ffd5b5060043610610060575f3560e01c80630add6ef214610064578063713cf83114610082578063c1001038146100a0578063ee495002146100be578063f60176b2146100dc578063f8aab238146100fa575b5f5ffd5b61006c610118565b60405161007991906101d9565b60405180910390f35b61008a61012a565b604051610097919061020a565b60405180910390f35b6100a861016b565b6040516100b5919061023b565b60405180910390f35b6100c6610176565b6040516100d3919061028e565b60405180910390f35b6100e4610187565b6040516100f191906102e1565b60405180910390f35b610102610199565b60405161010f919061020a565b60405180910390f35b5f60019054906101000a900460f01b81565b5f6001545f602081106101405761013f6102fa565b5b1a60f81b7effffffffffffffffffffffffffffffffffffffffffffffffffffffffffffff1916905090565b5f602060ff16905090565b5f5f9054906101000a900460f81b81565b5f60039054906101000a900460d01b81565b60015481565b5f7fffff00000000000000000000000000000000000000000000000000000000000082169050919050565b6101d38161019f565b82525050565b5f6020820190506101ec5f8301846101ca565b92915050565b5f819050919050565b610204816101f2565b82525050565b5f60208201905061021d5f8301846101fb565b92915050565b5f819050919050565b61023581610223565b82525050565b5f60208201905061024e5f83018461022c565b92915050565b5f7fff0000000000000000000000000000000000000000000000000000000000000082169050919050565b61028881610254565b82525050565b5f6020820190506102a15f83018461027f565b92915050565b5f7fffffffffffff000000000000000000000000000000000000000000000000000082169050919050565b6102db816102a7565b82525050565b5f6020820190506102f45f8301846102d2565b92915050565b7f4e487b71000000000000000000000000000000000000000000000000000000005f52603260045260245ffdfea264697066735822122037252930bbf110d0441998844bae4a651e545109bd34b7b2396fd04821f80ffd64736f6c634300081e0033",
					"opcodes": "PUSH1 0x80 PUSH1 0x40 MSTORE PUSH32 0x6868000000000000000000000000000000000000000000000000000000000000 PUSH0 PUSH1 0x1 PUSH2 0x100 EXP DUP2 SLOAD DUP2 PUSH2 0xFFFF MUL NOT AND SWAP1 DUP4 PUSH1 0xF0 SHR MUL OR SWAP1 SSTORE POP PUSH32 0x3132333435360000000000000000000000000000000000000000000000000000 PUSH0 PUSH1 0x3 PUSH2 0x100 EXP DUP2 SLOAD DUP2 PUSH6 0xFFFFFFFFFFFF MUL NOT AND SWAP1 DUP4 PUSH1 0xD0 SHR MUL OR SWAP1 SSTORE POP PUSH32 0x68616C6C656E0000000000000000000000000000000000000000000000000000 PUSH1 0x1 SSTORE CALLVALUE DUP1 ISZERO PUSH1 0xAC JUMPI PUSH0 PUSH0 REVERT JUMPDEST POP PUSH2 0x35D DUP1 PUSH2 0xBA PUSH0 CODECOPY PUSH0 RETURN INVALID PUSH1 0x80 PUSH1 0x40 MSTORE CALLVALUE DUP1 ISZERO PUSH2 0xF JUMPI PUSH0 PUSH0 REVERT JUMPDEST POP PUSH1 0x4 CALLDATASIZE LT PUSH2 0x60 JUMPI PUSH0 CALLDATALOAD PUSH1 0xE0 SHR DUP1 PUSH4 0xADD6EF2 EQ PUSH2 0x64 JUMPI DUP1 PUSH4 0x713CF831 EQ PUSH2 0x82 JUMPI DUP1 PUSH4 0xC1001038 EQ PUSH2 0xA0 JUMPI DUP1 PUSH4 0xEE495002 EQ PUSH2 0xBE JUMPI DUP1 PUSH4 0xF60176B2 EQ PUSH2 0xDC JUMPI DUP1 PUSH4 0xF8AAB238 EQ PUSH2 0xFA JUMPI JUMPDEST PUSH0 PUSH0 REVERT JUMPDEST PUSH2 0x6C PUSH2 0x118 JUMP JUMPDEST PUSH1 0x40 MLOAD PUSH2 0x79 SWAP2 SWAP1 PUSH2 0x1D9 JUMP JUMPDEST PUSH1 0x40 MLOAD DUP1 SWAP2 SUB SWAP1 RETURN JUMPDEST PUSH2 0x8A PUSH2 0x12A JUMP JUMPDEST PUSH1 0x40 MLOAD PUSH2 0x97 SWAP2 SWAP1 PUSH2 0x20A JUMP JUMPDEST PUSH1 0x40 MLOAD DUP1 SWAP2 SUB SWAP1 RETURN JUMPDEST PUSH2 0xA8 PUSH2 0x16B JUMP JUMPDEST PUSH1 0x40 MLOAD PUSH2 0xB5 SWAP2 SWAP1 PUSH2 0x23B JUMP JUMPDEST PUSH1 0x40 MLOAD DUP1 SWAP2 SUB SWAP1 RETURN JUMPDEST PUSH2 0xC6 PUSH2 0x176 JUMP JUMPDEST PUSH1 0x40 MLOAD PUSH2 0xD3 SWAP2 SWAP1 PUSH2 0x28E JUMP JUMPDEST PUSH1 0x40 MLOAD DUP1 SWAP2 SUB SWAP1 RETURN JUMPDEST PUSH2 0xE4 PUSH2 0x187 JUMP JUMPDEST PUSH1 0x40 MLOAD PUSH2 0xF1 SWAP2 SWAP1 PUSH2 0x2E1 JUMP JUMPDEST PUSH1 0x40 MLOAD DUP1 SWAP2 SUB SWAP1 RETURN JUMPDEST PUSH2 0x102 PUSH2 0x199 JUMP JUMPDEST PUSH1 0x40 MLOAD PUSH2 0x10F SWAP2 SWAP1 PUSH2 0x20A JUMP JUMPDEST PUSH1 0x40 MLOAD DUP1 SWAP2 SUB SWAP1 RETURN JUMPDEST PUSH0 PUSH1 0x1 SWAP1 SLOAD SWAP1 PUSH2 0x100 EXP SWAP1 DIV PUSH1 0xF0 SHL DUP2 JUMP JUMPDEST PUSH0 PUSH1 0x1 SLOAD PUSH0 PUSH1 0x20 DUP2 LT PUSH2 0x140 JUMPI PUSH2 0x13F PUSH2 0x2FA JUMP JUMPDEST JUMPDEST BYTE PUSH1 0xF8 SHL PUSH31 0xFFFFFFFFFFFFFFFFFFFFFFFFFFFFFFFFFFFFFFFFFFFFFFFFFFFFFFFFFFFFFF NOT AND SWAP1 POP SWAP1 JUMP JUMPDEST PUSH0 PUSH1 0x20 PUSH1 0xFF AND SWAP1 POP SWAP1 JUMP JUMPDEST PUSH0 PUSH0 SWAP1 SLOAD SWAP1 PUSH2 0x100 EXP SWAP1 DIV PUSH1 0xF8 SHL DUP2 JUMP JUMPDEST PUSH0 PUSH1 0x3 SWAP1 SLOAD SWAP1 PUSH2 0x100 EXP SWAP1 DIV PUSH1 0xD0 SHL DUP2 JUMP JUMPDEST PUSH1 0x1 SLOAD DUP2 JUMP JUMPDEST PUSH0 PUSH32 0xFFFF000000000000000000000000000000000000000000000000000000000000 DUP3 AND SWAP1 POP SWAP2 SWAP1 POP JUMP JUMPDEST PUSH2 0x1D3 DUP2 PUSH2 0x19F JUMP JUMPDEST DUP3 MSTORE POP POP JUMP JUMPDEST PUSH0 PUSH1 0x20 DUP3 ADD SWAP1 POP PUSH2 0x1EC PUSH0 DUP4 ADD DUP5 PUSH2 0x1CA JUMP JUMPDEST SWAP3 SWAP2 POP POP JUMP JUMPDEST PUSH0 DUP2 SWAP1 POP SWAP2 SWAP1 POP JUMP JUMPDEST PUSH2 0x204 DUP2 PUSH2 0x1F2 JUMP JUMPDEST DUP3 MSTORE POP POP JUMP JUMPDEST PUSH0 PUSH1 0x20 DUP3 ADD SWAP1 POP PUSH2 0x21D PUSH0 DUP4 ADD DUP5 PUSH2 0x1FB JUMP JUMPDEST SWAP3 SWAP2 POP POP JUMP JUMPDEST PUSH0 DUP2 SWAP1 POP SWAP2 SWAP1 POP JUMP JUMPDEST PUSH2 0x235 DUP2 PUSH2 0x223 JUMP JUMPDEST DUP3 MSTORE POP POP JUMP JUMPDEST PUSH0 PUSH1 0x20 DUP3 ADD SWAP1 POP PUSH2 0x24E PUSH0 DUP4 ADD DUP5 PUSH2 0x22C JUMP JUMPDEST SWAP3 SWAP2 POP POP JUMP JUMPDEST PUSH0 PUSH32 0xFF00000000000000000000000000000000000000000000000000000000000000 DUP3 AND SWAP1 POP SWAP2 SWAP1 POP JUMP JUMPDEST PUSH2 0x288 DUP2 PUSH2 0x254 JUMP JUMPDEST DUP3 MSTORE POP POP JUMP JUMPDEST PUSH0 PUSH1 0x20 DUP3 ADD SWAP1 POP PUSH2 0x2A1 PUSH0 DUP4 ADD DUP5 PUSH2 0x27F JUMP JUMPDEST SWAP3 SWAP2 POP POP JUMP JUMPDEST PUSH0 PUSH32 0xFFFFFFFFFFFF0000000000000000000000000000000000000000000000000000 DUP3 AND SWAP1 POP SWAP2 SWAP1 POP JUMP JUMPDEST PUSH2 0x2DB DUP2 PUSH2 0x2A7 JUMP JUMPDEST DUP3 MSTORE POP POP JUMP JUMPDEST PUSH0 PUSH1 0x20 DUP3 ADD SWAP1 POP PUSH2 0x2F4 PUSH0 DUP4 ADD DUP5 PUSH2 0x2D2 JUMP JUMPDEST SWAP3 SWAP2 POP POP JUMP JUMPDEST PUSH32 0x4E487B7100000000000000000000000000000000000000000000000000000000 PUSH0 MSTORE PUSH1 0x32 PUSH1 0x4 MSTORE PUSH1 0x24 PUSH0 REVERT INVALID LOG2 PUSH5 0x6970667358 0x22 SLT KECCAK256 CALLDATACOPY 0x25 0x29 ADDRESS 0xBB CALL LT 0xD0 PREVRANDAO NOT SWAP9 DUP5 0x4B 0xAE BLOBBASEFEE PUSH6 0x1E545109BD34 0xB7 0xB2 CODECOPY PUSH16 0xD04821F80FFD64736F6C634300081E00 CALLER "
				},
				"gasEstimates": {
					"creation": {
						"codeDepositCost": "172200",
						"executionCost": "70950",
						"totalCost": "243150"
					},
					"external": {
						"b1()": "2509",
						"b2()": "2494",
						"b32()": "2513",
						"b6()": "2582",
						"get_by_index()": "2475",
						"get_lan()": "360"
					}
				},
				"methodIdentifiers": {
					"b1()": "ee495002",
					"b2()": "0add6ef2",
					"b32()": "f8aab238",
					"b6()": "f60176b2",
					"get_by_index()": "713cf831",
					"get_lan()": "c1001038"
				}
			},
			"storageLayout": {
				"storage": [
					{
						"astId": 3,
						"contract": "demo/03_bytes.sol:TestBytes",
						"label": "b1",
						"offset": 0,
						"slot": "0",
						"type": "t_bytes1"
					},
					{
						"astId": 6,
						"contract": "demo/03_bytes.sol:TestBytes",
						"label": "b2",
						"offset": 1,
						"slot": "0",
						"type": "t_bytes2"
					},
					{
						"astId": 9,
						"contract": "demo/03_bytes.sol:TestBytes",
						"label": "b6",
						"offset": 3,
						"slot": "0",
						"type": "t_bytes6"
					},
					{
						"astId": 12,
						"contract": "demo/03_bytes.sol:TestBytes",
						"label": "b32",
						"offset": 0,
						"slot": "1",
						"type": "t_bytes32"
					}
				],
				"types": {
					"t_bytes1": {
						"encoding": "inplace",
						"label": "bytes1",
						"numberOfBytes": "1"
					},
					"t_bytes2": {
						"encoding": "inplace",
						"label": "bytes2",
						"numberOfBytes": "2"
					},
					"t_bytes32": {
						"encoding": "inplace",
						"label": "bytes32",
						"numberOfBytes": "32"
					},
					"t_bytes6": {
						"encoding": "inplace",
						"label": "bytes6",
						"numberOfBytes": "6"
					}
				}
			},
			"userdoc": {
				"kind": "user",
				"methods": {},
				"version": 1
			}
		}
	}
}