{
	"data": {
		"bytecode": {
			"linkReferences": {},
			"object": "60806040527f68680000000000000000000000000000000000000000000000000000000000005f60016101000a81548161ffff021916908360f01c02179055507f31323334353600000000000000000000000000000000000000000000000000005f60036101000a81548165ffffffffffff021916908360d01c02179055507f68616c6c656e000000000000000000000000000000000000000000000000000060015534801560ac575f5ffd5b5061035d806100ba5f395ff3fe608060405234801561000f575f5ffd5b5060043610610060575f3560e01c80630add6ef214610064578063713cf83114610082578063c1001038146100a0578063ee495002146100be578063f60176b2146100dc578063f8aab238146100fa575b5f5ffd5b61006c610118565b60405161007991906101d9565b60405180910390f35b61008a61012a565b604051610097919061020a565b60405180910390f35b6100a861016b565b6040516100b5919061023b565b60405180910390f35b6100c6610176565b6040516100d3919061028e565b60405180910390f35b6100e4610187565b6040516100f191906102e1565b60405180910390f35b610102610199565b60405161010f919061020a565b60405180910390f35b5f60019054906101000a900460f01b81565b5f6001545f602081106101405761013f6102fa565b5b1a60f81b7effffffffffffffffffffffffffffffffffffffffffffffffffffffffffffff1916905090565b5f602060ff16905090565b5f5f9054906101000a900460f81b81565b5f60039054906101000a900460d01b81565b60015481565b5f7fffff00000000000000000000000000000000000000000000000000000000000082169050919050565b6101d38161019f565b82525050565b5f6020820190506101ec5f8301846101ca565b92915050565b5f819050919050565b610204816101f2565b82525050565b5f60208201905061021d5f8301846101fb565b92915050565b5f819050919050565b61023581610223565b82525050565b5f60208201905061024e5f83018461022c565b92915050565b5f7fff0000000000000000000000000000000000000000000000000000000000000082169050919050565b61028881610254565b82525050565b5f6020820190506102a15f83018461027f565b92915050565b5f7fffffffffffff000000000000000000000000000000000000000000000000000082169050919050565b6102db816102a7565b82525050565b5f6020820190506102f45f8301846102d2565b92915050565b7f4e487b71000000000000000000000000000000000000000000000000000000005f52603260045260245ffdfea26469706673582212208717ced3b394e8f210b95c5a629a1e04976414aa9573f76e9e1ab22e1cf5495564736f6c634300081e0033",
			"opcodes": "PUSH1 0x80 PUSH1 0x40 MSTORE PUSH32 0x6868000000000000000000000000000000000000000000000000000000000000 PUSH0 PUSH1 0x1 PUSH2 0x100 EXP DUP2 SLOAD DUP2 PUSH2 0xFFFF MUL NOT AND SWAP1 DUP4 PUSH1 0xF0 SHR MUL OR SWAP1 SSTORE POP PUSH32 0x3132333435360000000000000000000000000000000000000000000000000000 PUSH0 PUSH1 0x3 PUSH2 0x100 EXP DUP2 SLOAD DUP2 PUSH6 0xFFFFFFFFFFFF MUL NOT AND SWAP1 DUP4 PUSH1 0xD0 SHR MUL OR SWAP1 SSTORE POP PUSH32 0x68616C6C656E0000000000000000000000000000000000000000000000000000 PUSH1 0x1 SSTORE CALLVALUE DUP1 ISZERO PUSH1 0xAC JUMPI PUSH0 PUSH0 REVERT JUMPDEST POP PUSH2 0x35D DUP1 PUSH2 0xBA PUSH0 CODECOPY PUSH0 RETURN INVALID PUSH1 0x80 PUSH1 0x40 MSTORE CALLVALUE DUP1 ISZERO PUSH2 0xF JUMPI PUSH0 PUSH0 REVERT JUMPDEST POP PUSH1 0x4 CALLDATASIZE LT PUSH2 0x60 JUMPI PUSH0 CALLDATALOAD PUSH1 0xE0 SHR DUP1 PUSH4 0xADD6EF2 EQ PUSH2 0x64 JUMPI DUP1 PUSH4 0x713CF831 EQ PUSH2 0x82 JUMPI DUP1 PUSH4 0xC1001038 EQ PUSH2 0xA0 JUMPI DUP1 PUSH4 0xEE495002 EQ PUSH2 0xBE JUMPI DUP1 PUSH4 0xF60176B2 EQ PUSH2 0xDC JUMPI DUP1 PUSH4 0xF8AAB238 EQ PUSH2 0xFA JUMPI JUMPDEST PUSH0 PUSH0 REVERT JUMPDEST PUSH2 0x6C PUSH2 0x118 JUMP JUMPDEST PUSH1 0x40 MLOAD PUSH2 0x79 SWAP2 SWAP1 PUSH2 0x1D9 JUMP JUMPDEST PUSH1 0x40 MLOAD DUP1 SWAP2 SUB SWAP1 RETURN JUMPDEST PUSH2 0x8A PUSH2 0x12A JUMP JUMPDEST PUSH1 0x40 MLOAD PUSH2 0x97 SWAP2 SWAP1 PUSH2 0x20A JUMP JUMPDEST PUSH1 0x40 MLOAD DUP1 SWAP2 SUB SWAP1 RETURN JUMPDEST PUSH2 0xA8 PUSH2 0x16B JUMP JUMPDEST PUSH1 0x40 MLOAD PUSH2 0xB5 SWAP2 SWAP1 PUSH2 0x23B JUMP JUMPDEST PUSH1 0x40 MLOAD DUP1 SWAP2 SUB SWAP1 RETURN JUMPDEST PUSH2 0xC6 PUSH2 0x176 JUMP JUMPDEST PUSH1 0x40 MLOAD PUSH2 0xD3 SWAP2 SWAP1 PUSH2 0x28E JUMP JUMPDEST PUSH1 0x40 MLOAD DUP1 SWAP2 SUB SWAP1 RETURN JUMPDEST PUSH2 0xE4 PUSH2 0x187 JUMP JUMPDEST PUSH1 0x40 MLOAD PUSH2 0xF1 SWAP2 SWAP1 PUSH2 0x2E1 JUMP JUMPDEST PUSH1 0x40 MLOAD DUP1 SWAP2 SUB SWAP1 RETURN JUMPDEST PUSH2 0x102 PUSH2 0x199 JUMP JUMPDEST PUSH1 0x40 MLOAD PUSH2 0x10F SWAP2 SWAP1 PUSH2 0x20A JUMP JUMPDEST PUSH1 0x40 MLOAD DUP1 SWAP2 SUB SWAP1 RETURN JUMPDEST PUSH0 PUSH1 0x1 SWAP1 SLOAD SWAP1 PUSH2 0x100 EXP SWAP1 DIV PUSH1 0xF0 SHL DUP2 JUMP JUMPDEST PUSH0 PUSH1 0x1 SLOAD PUSH0 PUSH1 0x20 DUP2 LT PUSH2 0x140 JUMPI PUSH2 0x13F PUSH2 0x2FA JUMP JUMPDEST JUMPDEST BYTE PUSH1 0xF8 SHL PUSH31 0xFFFFFFFFFFFFFFFFFFFFFFFFFFFFFFFFFFFFFFFFFFFFFFFFFFFFFFFFFFFFFF NOT AND SWAP1 POP SWAP1 JUMP JUMPDEST PUSH0 PUSH1 0x20 PUSH1 0xFF AND SWAP1 POP SWAP1 JUMP JUMPDEST PUSH0 PUSH0 SWAP1 SLOAD SWAP1 PUSH2 0x100 EXP SWAP1 DIV PUSH1 0xF8 SHL DUP2 JUMP JUMPDEST PUSH0 PUSH1 0x3 SWAP1 SLOAD SWAP1 PUSH2 0x100 EXP SWAP1 DIV PUSH1 0xD0 SHL DUP2 JUMP JUMPDEST PUSH1 0x1 SLOAD DUP2 JUMP JUMPDEST PUSH0 PUSH32 0xFFFF000000000000000000000000000000000000000000000000000000000000 DUP3 AND SWAP1 POP SWAP2 SWAP1 POP JUMP JUMPDEST PUSH2 0x1D3 DUP2 PUSH2 0x19F JUMP JUMPDEST DUP3 MSTORE POP POP JUMP JUMPDEST PUSH0 PUSH1 0x20 DUP3 ADD SWAP1 POP PUSH2 0x1EC PUSH0 DUP4 ADD DUP5 PUSH2 0x1CA JUMP JUMPDEST SWAP3 SWAP2 POP POP JUMP JUMPDEST PUSH0 DUP2 SWAP1 POP SWAP2 SWAP1 POP JUMP JUMPDEST PUSH2 0x204 DUP2 PUSH2 0x1F2 JUMP JUMPDEST DUP3 MSTORE POP POP JUMP JUMPDEST PUSH0 PUSH1 0x20 DUP3 ADD SWAP1 POP PUSH2 0x21D PUSH0 DUP4 ADD DUP5 PUSH2 0x1FB JUMP JUMPDEST SWAP3 SWAP2 POP POP JUMP JUMPDEST PUSH0 DUP2 SWAP1 POP SWAP2 SWAP1 POP JUMP JUMPDEST PUSH2 0x235 DUP2 PUSH2 0x223 JUMP JUMPDEST DUP3 MSTORE POP POP JUMP JUMPDEST PUSH0 PUSH1 0x20 DUP3 ADD SWAP1 POP PUSH2 0x24E PUSH0 DUP4 ADD DUP5 PUSH2 0x22C JUMP JUMPDEST SWAP3 SWAP2 POP POP JUMP JUMPDEST PUSH0 PUSH32 0xFF00000000000000000000000000000000000000000000000000000000000000 DUP3 AND SWAP1 POP SWAP2 SWAP1 POP JUMP JUMPDEST PUSH2 0x288 DUP2 PUSH2 0x254 JUMP JUMPDEST DUP3 MSTORE POP POP JUMP JUMPDEST PUSH0 PUSH1 0x20 DUP3 ADD SWAP1 POP PUSH2 0x2A1 PUSH0 DUP4 ADD DUP5 PUSH2 0x27F JUMP JUMPDEST SWAP3 SWAP2 POP POP JUMP JUMPDEST PUSH0 PUSH32 0xFFFFFFFFFFFF0000000000000000000000000000000000000000000000000000 DUP3 AND SWAP1 POP SWAP2 SWAP1 POP JUMP JUMPDEST PUSH2 0x2DB DUP2 PUSH2 0x2A7 JUMP JUMPDEST DUP3 MSTORE POP POP JUMP JUMPDEST PUSH0 PUSH1 0x20 DUP3 ADD SWAP1 POP PUSH2 0x2F4 PUSH0 DUP4 ADD DUP5 PUSH2 0x2D2 JUMP JUMPDEST SWAP3 SWAP2 POP POP JUMP JUMPDEST PUSH32 0x4E487B7100000000000000000000000000000000000000000000000000000000 PUSH0 MSTORE PUSH1 0x32 PUSH1 0x4 MSTORE PUSH1 0x24 PUSH0 REVERT INVALID LOG2 PUSH5 0x6970667358 0x22 SLT KECCAK256 DUP8 OR 0xCE 0xD3 0xB3 SWAP5 0xE8 CALLCODE LT 0xB9 TLOAD GAS PUSH3 0x9A1E04 SWAP8 PUSH5 0x14AA9573F7 PUSH15 0x9E1AB22E1CF5495564736F6C634300 ADDMOD 0x1E STOP CALLER "
		},
		"gasEstimates": {
			"creation": {
				"codeDepositCost": "172200",
				"executionCost": "70950",
				"totalCost": "243150"
			},
			"external": {
				"b1()": "2509",
				"b2()": "2494",
				"b32()": "2513",
				"b6()": "2582",
				"get_by_index()": "2475",
				"get_lan()": "360"
			}
		},
		"methodIdentifiers": {
			"b1()": "ee495002",
			"b2()": "0add6ef2",
			"b32()": "f8aab238",
			"b6()": "f60176b2",
			"get_by_index()": "713cf831",
			"get_lan()": "c1001038"
		}
	},
	"abi": [
		{
			"inputs": [],
			"name": "b1",
			"outputs": [
				{
					"internalType": "bytes1",
					"name": "",
					"type": "bytes1"
				}
			],
			"stateMutability": "view",
			"type": "function"
		},
		{
			"inputs": [],
			"name": "b2",
			"outputs": [
				{
					"internalType": "bytes2",
					"name": "",
					"type": "bytes2"
				}
			],
			"stateMutability": "view",
			"type": "function"
		},
		{
			"inputs": [],
			"name": "b32",
			"outputs": [
				{
					"internalType": "bytes32",
					"name": "",
					"type": "bytes32"
				}
			],
			"stateMutability": "view",
			"type": "function"
		},
		{
			"inputs": [],
			"name": "b6",
			"outputs": [
				{
					"internalType": "bytes6",
					"name": "",
					"type": "bytes6"
				}
			],
			"stateMutability": "view",
			"type": "function"
		},
		{
			"inputs": [],
			"name": "get_by_index",
			"outputs": [
				{
					"internalType": "bytes32",
					"name": "",
					"type": "bytes32"
				}
			],
			"stateMutability": "view",
			"type": "function"
		},
		{
			"inputs": [],
			"name": "get_lan",
			"outputs": [
				{
					"internalType": "uint256",
					"name": "",
					"type": "uint256"
				}
			],
			"stateMutability": "view",
			"type": "function"
		}
	]
}